:100000000C9462000C948A000C948A000C948A0070
:100010000C948A000C948A000C945E170C948A004D
:100020000C948A000C948A000C948A000C948A0028
:100030000C948A000C948A000C948A000C948A0018
:100040000C94CD050C948A000C949B050C947505BA
:100050000C948A000C948A000C948A000C948A00F8
:100060000C948A000C948A000000000023002600F3
:10007000290000000000240027002A0000000000E2
:10008000250028002B0004040404040404040202D4
:100090000202020203030303030301020408102007
:1000A0004080010204081020010204081020000012
:1000B0000008000201000003040700000000000027
:1000C0000000611711241FBECFEFD8E0DEBFCDBF07
:1000D00011E0A0E0B1E0E8E3F5E302C005900D9285
:1000E000A835B107D9F722E0A8E5B1E001C01D921B
:1000F000A53AB207E1F710E0C2E6D0E004C02197CC
:10010000FE010E94841AC136D107C9F70E94AB17BD
:100110000C949A1A0C940000AF92BF92CF92DF9287
:10012000EF92FF920F931F93CF93DF936C017B01AC
:100130008B01040F151FEB015E01AE18BF08C0173D
:10014000D10759F06991D601ED91FC910190F081B0
:10015000E02DC6010995892B79F7C501DF91CF9173
:100160001F910F91FF90EF90DF90CF90BF90AF90D5
:100170000895FC01538D448D252F30E0842F90E0AD
:10018000821B930B541710F0CF9608950197089592
:10019000FC01918D828D981761F0A28DAE0FBF2F5B
:1001A000B11D5D968C91928D9F5F9F73928F90E0B1
:1001B00008958FEF9FEF0895FC01918D828D981720
:1001C00031F0828DE80FF11D858D90E008958FEF5D
:1001D0009FEF0895FC01918D228D892F90E0805C26
:1001E0009F4F821B91098F73992708958CEE91E0A0
:1001F0000E94EA0021E0892B09F420E0822F089573
:100200000E94F60081110C940000089580E090E0B7
:10021000892B11F00C9400010895FC01A48DA80F06
:10022000B92FB11DA35ABF4F2C91848D90E0019638
:100230008F739927848FA689B7892C93A089B18958
:100240008C91837080648C93938D848D981306C0F9
:100250000288F389E02D80818F7D80830895EF925D
:10026000FF920F931F93CF93DF93EC0181E0888F70
:100270009B8D8C8D98131AC0E889F989808185FF40
:1002800015C09FB7F894EE89FF896083E889F989E2
:1002900080818370806480839FBF81E090E0DF91E4
:1002A000CF911F910F91FF90EF900895F62E0B8D37
:1002B00010E00F5F1F4F0F731127E02E8C8D8E11F2
:1002C0000CC00FB607FCFACFE889F989808185FF59
:1002D000F5CFCE010E940D01F1CFEB8DEC0FFD2F7C
:1002E000F11DE35AFF4FF0829FB7F8940B8FEA8914
:1002F000FB8980818062CFCFCF93DF93EC01888D23
:100300008823B9F0AA89BB89E889F9898C9185FD90
:1003100003C0808186FD0DC00FB607FCF7CF8C911E
:1003200085FFF2CF808185FFEDCFCE010E940D01C8
:10033000E9CFDF91CF91089590E0FC01E255FF4FA6
:100340002491FC01E656FF4F3491FC01EA57FF4F20
:10035000E491EE23C9F0222339F0233001F1A8F40F
:10036000213019F1223029F1F0E0EE0FFF1FE4589F
:10037000FF4FA591B4918FB7F894EC91611126C00D
:1003800030953E233C938FBF08952730A9F0283045
:10039000C9F0243049F7809180008F7D03C080919F
:1003A00080008F7780938000DFCF84B58F7784BD06
:1003B000DBCF84B58F7DFBCF8091B0008F778093AA
:1003C000B000D2CF8091B0008F7DF9CF3E2BDACF35
:1003D000CF93DF9390E0FC01E656FF4F24918A57BC
:1003E0009F4FFC0184918823D1F090E0880F991FE2
:1003F000FC01EE58FF4FA591B491FC01E458FF4F6A
:10040000C591D49161110EC09FB7F8948C91E22FE1
:10041000E0958E238C932881E223E8839FBFDF91B0
:10042000CF9108958FB7F894EC91E22BEC938FBFA6
:10043000F6CF089590E080E00895CF93DF93EC012C
:1004400060E08E810E949C0161E08E810E949C018F
:1004500060E08E810E949C018BE891E00197F1F7AA
:10046000DF91CF910895CF92DF92EF92FF920F9399
:100470001F93CF93DF936C017C0187E0E80EF11CA2
:10048000D0E0C0E0062F10E0B8010C2E02C0759538
:1004900067950A94E2F76170F70181917F010E94EC
:1004A0009C012196C430D10579F7C601DF91CF9127
:1004B0001F910F91FF90EF90DF90CF900C941D0251
:1004C000CF92DF92EF92FF920F931F93CF93DF9320
:1004D000EC01F62E642F8C810E949C018D818F3F50
:1004E00019F060E00E949C010F2D10E08F8584FFC1
:1004F00025C06E0187E0C80ED11CF12CE12CB8019B
:100500000E2C02C0759567950A94E2F76170F601AA
:1005100081916F010E949C01FFEFEF1AFF0A88E0B2
:10052000E816F10461F7CE01DF91CF911F910F9191
:10053000FF90EF90DF90CF900C941D02B80184E003
:10054000759567958A95E1F7CE010E9433026F2D6C
:10055000CE01DF91CF911F910F91FF90EF90DF902F
:10056000CF900C94330240E0682F89E892E00C941D
:10057000600281E00E94B3028BE39FE10197F1F7F3
:100580000895E1E090919C029111E0E0E195F0E0A6
:10059000E757FD4F9489890F80680C94B302CF937D
:1005A000DF93823029F4909198029860909398029A
:1005B00080939C0210929D0280E480939E0280E1D1
:1005C00080939F0280E58093A00261E080918D027C
:1005D0000E94E80180918E028F3F19F061E00E9435
:1005E000E80161E080918F020E94E801C9E8D2E051
:1005F0009E01295832408091980284FD0BC084E00E
:1006000090E021962817390744F461E08E810E941A
:10061000E801EECF88E090E0F4CF8BE39DE0019716
:10062000F1F760E080918D020E949C0160E0809172
:100630008F020E949C0180918E028F3F19F060E032
:100640000E949C018091980284FD34C063E089E897
:1006500092E00E943302CBE4D6E4CE010197F1F799
:1006600063E089E892E00E9433022197F1F763E0AA
:1006700089E892E00E94330283E592E00197F1F766
:1006800062E089E892E00E943302809198028062E1
:100690000E94B30284E0809399028CE00E94B3022E
:1006A0000E94B90282E080939A0286E0DF91CF91A6
:1006B0000C94B30280620E94B3028BE496E401972B
:1006C000F1F78091980280620E94B30283E592E084
:1006D0000197F1F78091980280620E94B302D5CF12
:1006E00041E00E94600281E090E00895FB010190EA
:1006F0000020E9F73197AF01461B570BDC01ED9164
:10070000FC910280F381E02D09944F925F926F92E9
:100710007F92AF92BF92CF92DF92EF92FF920F93B0
:100720001F93CF93DF93CDB7DEB7A1970FB6F894A1
:10073000DEBF0FBECDBF5C016A017B01F7FE47C083
:10074000DC01ED91FC910190F081E02D6DE20995C5
:100750008C0122273327A9012C193D094E095F0975
:1007600019A2FE01B1967F019AE0492E512C612C0D
:10077000712CCA01B901A30192010E94621A605D45
:10078000D7016E937D01211531054105510589F78A
:1007900090E080E0109721F0BD01C5010E94760332
:1007A000800F911FA1960FB6F894DEBF0FBECDBF8C
:1007B000DF91CF911F910F91FF90EF90DF90CF903D
:1007C000BF90AF907F906F905F904F900895AB0176
:1007D000960119A28E010F5D1F4F8AE0C82ED12C01
:1007E000E12CF12CCA01B901A70196010E94621AFD
:1007F000605DF80162938F012115310541055105B6
:1008000089F790E080E0309769F2BF01C5010E944E
:100810007603C8CFC0E4C0937C0080917A008064E6
:1008200080937A0080917A0086FDFCCFC09078009A
:10083000D090790080916001909161010E94C40F75
:100840000E94B90280E00E94C10265E271E089E87D
:1008500092E00E94760386E00E94C1020D2C000CFB
:10086000EE08FF08B701A60189E892E00E9485031F
:100870000E94190D0E94B90265E271E08CEE91E0D0
:100880000E947603B701A6018CEE91E00E948503D9
:100890006CE271E08CEE91E00E9476038091600141
:1008A000909161010E94EE0B0E945C0660E081E085
:1008B00090E00E946A070E94260A8111ACCF0E9434
:1008C0006A09A9CF0F931F93CF93DF93E091FC01A7
:1008D000F091FD0182E08083E091F801F091F9014F
:1008E0001082E091FA01F091FB018FEC808310926D
:1008F0000402E0910002F091010286E08083E09121
:10090000FE01F091FF01808180618083E091FE0112
:10091000F091FF01808188608083E091FE01F09179
:10092000FF01808180688083E091FE01F091FF01EA
:1009300080818F7D808382E00E94CF020EE511E0EE
:1009400020E040E850E06CE371E08AE094E00E942F
:1009500094150CE511E020E040E850E060E471E01F
:100960008DEC94E00E9494158FE190E00E94761542
:10097000EC01009741F09983888311E01B8F1C8E56
:100980000E943A091A8FD0936101C0936001DF91F0
:10099000CF911F910F910C94B916C3E0D0E043E2C0
:1009A000E42EF12C5AEAC52E50E0D52E66E9A62E8B
:1009B00060E0B62E61E08FE00E94E80160E080E137
:1009C0000E94E80160E08FE00E949C01CE01019747
:1009D000F1F761E08FE00E949C01C7010197F1F7F8
:1009E00060E08FE00E949C01F6016491F501849122
:1009F000E82FF0E0EE0FFF1FE859FF4F859194912B
:100A000000E412E42FE030E0462F0E941706611543
:100A100071058105910529F06F5F7F4F8F4F9F4FC3
:100A20009F7095958795779567950E94D6192DECBF
:100A30003CEC48EE51E40E942C190E949E192B01B7
:100A40003C0180916001909161010E94C40F80E09F
:100A50000E94C1026BE471E089E892E00E94760393
:100A60008AE00E94C102B301A20189E892E00E94DB
:100A7000850365E571E089E892E00E9476036CE207
:100A800071E089E892E00E9476030E94190D0E94AD
:100A9000B9026BE471E08CEE91E00E947603B30141
:100AA000A2018CEE91E00E94850365E571E08CEE79
:100AB00091E00E9476036CE271E08CEE91E00E947E
:100AC000760380916001909161010E94EE0B0E947B
:100AD0005C0660E081E090E00E946A070E94260ABE
:100AE000811168CF0E946A0965CF1F920F920FB6DD
:100AF0000F9211242F933F934F935F936F937F93A4
:100B00008F939F93AF93BF93EF93FF938CEE91E0FE
:100B10000E940D01FF91EF91BF91AF919F918F9135
:100B20007F916F915F914F913F912F910F900FBEE9
:100B30000F901F9018951F920F920FB60F921124CD
:100B40002F938F939F93EF93FF93E091FC01F0918C
:100B5000FD018081E0910202F091030282FD1BC041
:100B60009081809105028F5F8F732091060282171A
:100B700041F0E0910502F0E0E451FE4F958F809343
:100B80000502FF91EF919F918F912F910F900FBED2
:100B90000F901F9018958081F4CF1F920F920FB67F
:100BA0000F9211242F933F938F939F93AF93BF93F3
:100BB0008091820190918301A0918401B09185017F
:100BC0003091810123E0230F2D3758F50196A11DA7
:100BD000B11D209381018093820190938301A093A2
:100BE0008401B09385018091C0019091C101A091D1
:100BF000C201B091C3010196A11DB11D8093C00136
:100C00009093C101A093C201B093C301BF91AF9172
:100C10009F918F913F912F910F900FBE0F901F903A
:100C2000189526E8230F0296A11DB11DD2CFCF92B1
:100C3000DF92EF92FF920F931F93E82FF92F05C0D9
:100C4000015011092109310961F19081962394170E
:100C5000B9F305C0015011092109310911F1908141
:100C600096239413F7CFC12CD12CE12CF12C0AC080
:100C70008FEFC81AD80AE80AF80A0C151D052E05C8
:100C80003F0579F080818623841791F36C2D7D2DAB
:100C90008E2D9F2D1F910F91FF90EF90DF90CF90A1
:100CA000089560E070E080E090E01F910F91FF9068
:100CB000EF90DF90CF9008958091BF018F5F809378
:100CC000BF010895CF93DF93FC01A085B185828198
:100CD000938124813581EC013D832C83C481D581AE
:100CE0009B838A8311968D919C9112978E179F07F3
:100CF00021F41296DC93CE931197118610868C9175
:100D000081508C938C91DF91CF9108950F931F9315
:100D1000CF93DF938C01FB0180819181D8011396E1
:100D20008F3F9807F1F4E801AF81B88512968D9155
:100D30009C91139793838283EC01FD83EC83B583AD
:100D4000A4831396FC93EE93129711870087F80102
:100D500080818F5F8083DF91CF911F910F910895E4
:100D6000D90112962D913C911397E901488159813F
:100D700084179507A8F7DACFE091BB01F091BC0189
:100D80008081811107C08FEF9FEF9093BA0180930C
:100D9000B9010895E091BB01F091BC010580F68195
:100DA000E02D80819181F1CFFC0173836283918773
:100DB00080874617570790F0421B530B8485958513
:100DC00048175907C8F4BF016E5F7F4F80917D01BE
:100DD00090917E010E94860680E008954217530795
:100DE00018F46217730740F4BF016E5F7F4F809164
:100DF0007F0190918001EECF81E00895EF92FF9204
:100E00000F931F93CF93DF93EC018B017A016C85D5
:100E10007D85600F711F9801A701CE010E94D40645
:100E2000811107C0DF91CF911F910F91FF90EF903B
:100E300008958C859D85080F191FE889F989CE01D1
:100E40000995E5CFEF92FF920F931F93CF93DF9316
:100E50008C017B01E0917F01F09180010580F6819A
:100E6000E02DC681D781CE0102960E9462068A8952
:100E700082FF0FC0A701B801CE010E94FE06E889DB
:100E8000F989CE01DF91CF911F910F91FF90EF90E3
:100E900009948E7F8A8BF3CFE0917F01F0918001DE
:100EA000808181110DC080917D0190917E01909390
:100EB000800180937F01F0937E01E0937D0108958E
:100EC0000580F681E02D6FEF7FEF808191810E9498
:100ED0002207E2CFFF920F931F93CF93DF93EC0192
:100EE000F62E0091C4011091C50180915801909196
:100EF000590102960E946206CF3FDC07E9F5FF2008
:100F0000D9F1E0918701F0918801A0915801B09149
:100F100059011596FC93EE931497A0915801B09146
:100F200059018481958117969C938E931697809191
:100F3000580190915901A481B581029613969C9312
:100F40008E93129780915801909159010296958342
:100F50008483E0915801F091590186E891E09387EC
:100F60008287809186018F5F80938601DF91CF9188
:100F70001F910F91FF900895C00FD11FE09158016C
:100F8000F0915901D383C283609158017091590146
:100F9000C017D10768F48091BD019091BE016E5FCA
:100FA0007F4FDF91CF911F910F91FF900C94860698
:100FB0008091BB019091BC016E5F7F4F0E948606BD
:100FC0008091B9019091BA01C817D90778F6D093EA
:100FD000BA01C093B901CACFFC01DB010FB6F89486
:100FE0000F924091C4015091C5012D913C911197F0
:100FF0002F3F320711F1818192816091C60170818A
:10100000761749F04817590730F01D921C9281E07D
:101010000F900FBE0895481B590B42175307A8F7AE
:10102000241B350B2D933C938091C60180838091C6
:10103000C4019091C5019283818380E0E9CFCF9371
:10104000DF93DC011596ED91FC910680F781E02D90
:10105000A489B5898685978520893189EC013D83EE
:101060002C83C089D1899B838A83CF010C961196EA
:101070002D913C9112972817390721F41296DC9391
:10108000CE931197158A148A2C9121502C9320917C
:10109000BF01211157C0A285B38584819581268126
:1010A0003781EC013D832C83C681D7819B838A8362
:1010B000CF01029611962D913C911297281739076E
:1010C00021F41296DC93CE931197138612862C91FD
:1010D00021502C93C6892091EB012C1710F4C0935A
:1010E000EB0129E02C9FE0011124C953DE4F098058
:1010F000DA81C02DD583C4834C815D8157834683BB
:10110000AC81BD8113969C938E9312979D838C83A3
:10111000A689A29FD0011124A953BE4FB387A287ED
:101120008C918F5F8C93A0915801B0915901968951
:1011300056968C91891730F581E08093AE01DF914E
:10114000CF910895A091B001B091B101B787A68762
:1011500014962D913C911597318B208B1496CD913F
:10116000DC9115979B838A8315969C938E93149795
:101170008FEA91E0958B848B8091AF018F5F809394
:10118000AF01D1CF80E0DBCFCF93DF93EB01609154
:10119000580170915901645F7F4F0E94860661E09B
:1011A000CE01DF91CF910C946A070FB6F8940F929D
:1011B0008091C4019091C5010F900FBE08950FB6A4
:1011C000F8940F92FC01928D0F900FBE81E0911167
:1011D00080E00895EF92FF920F931F93CF93DF93D8
:1011E000EC010FB6F8940F921E8D7C0181E1E80EA0
:1011F000F11C01E01116D4F08FEF8E8F0F900FBE0F
:101200000FB6F8940F921D8D7E0188E0E80EF11C58
:1012100001E01116B4F08FEF8D8F0F900FBEDF91AC
:10122000CF911F910F91FF90EF90089589898823A6
:1012300019F3C7010E941F0881110093AE011150DC
:10124000D9CF8885882339F3C7010E941F088111EF
:101250000093AE011150DDCFFC0103969283818390
:101260002FEF3FEF34832383968385839087878393
:1012700010820895CF93DF93EC010FB6F8940F928C
:10128000888199812B8D4C8DBC01249F600D711D2F
:1012900011247D836C831A8E9B838A832150330BA8
:1012A000429FB001439F700D1124860F971F9F83AB
:1012B0008E838FEF8D8F8E8FCE0108960E942C0922
:1012C000CE0141960E942C090F900FBE81E0DF9164
:1012D000CF9108950F920FB6F8940F921F92112498
:1012E0002F923F924F925F926F927F928F929F9236
:1012F000AF92BF92CF92DF92EF92FF920F931F9324
:101300002F933F934F935F936F937F938F939F930D
:10131000AF93BF93CF93DF93EF93FF93A0915801C7
:10132000B09159010DB60D920EB60D928091BF018C
:10133000882321F081E08093AE015DC01092AE0160
:10134000A0915801B0915901E0915801F0915901D3
:101350002D913C918789908D82179307A8F08091F9
:101360005801909159018091580190915901259A05
:101370002D9A2FEF87EA91E6215080409040E1F7C7
:1013800000C000001D9AF5CF2091EB0189E001C05B
:101390002150422F50E0849FF001859FF00D1124D1
:1013A000E953FE4F9081992399F3A181B28112965E
:1013B0006D917C9172836183289FC00111248653B3
:1013C0009E4F6817790721F48581968192838183E6
:1013D00089E0849FF001859FF00D1124E953FE4FB1
:1013E0000180F281E02D868197819093590180934D
:1013F00058012093EB01A0915801B0915901CD9172
:10140000CDBFDD91DEBFFF91EF91DF91CF91BF9115
:10141000AF919F918F917F916F915F914F913F918C
:101420002F911F910F91FF90EF90DF90CF90BF9081
:10143000AF909F908F907F906F905F904F903F9074
:101440002F901F900F900FBE0F9008958F929F9234
:10145000BF92CF92DF92EF92FF920F931F93CF93A1
:10146000DF930FB6F8940F928091BF018150809363
:10147000BF018091BF01882379F080E00F900FBEFB
:10148000DF91CF911F910F91FF90EF90DF90CF9060
:10149000BF909F908F9008958091B801882369F341
:1014A000E090B401F090B501F0E0E0E039E041E017
:1014B0008091AF0181115EC0EF2B11F00E94BC063C
:1014C000E090AC01F090AD01E114F10409F47DC1AC
:1014D00089E0D82ECC24C3940FEF1FEF8091BF0179
:1014E000811161C1C091C401D091C5014E018FEF3E
:1014F000881A980A9092C5018092C40181149104BF
:10150000B9F48091BB019091BC012091BD01309153
:10151000BE013093BC012093BB019093BE01809328
:10152000BD018091C6018F5F8093C6010E94BC06F9
:101530008091B9019091BA01B12C8816990608F0F2
:1015400026C1E0915801F0915901E689DE9EF00133
:101550001124E953FE4F8081823010F0BB24B394F4
:101560008091AE01811103C0BB2009F425C1C09256
:10157000AE0122C1D7011696ED91FC91A489B589DF
:101580006685778580899189EB019D838C8380892D
:101590009189EC017B836A83BF01645F7F4F119661
:1015A0000D911C9112970617170721F412969C9320
:1015B0008E931197158A148A8C9181508C93A285F1
:1015C000B3858481958166817781EC017D836C830D
:1015D00066817781EB019B838A83CF010296119606
:1015E0000D911C9112970817190721F412967C93FC
:1015F0006E931197138612862C9121502C93A689F5
:101600002091EB012A1710F4A093EB013A9FD0012F
:101610001124A953BE4F11960D90BC91A02DB583F6
:10162000A48314966D917C911597778366831496A5
:101630006D917C911597EB019B838A8315969C9302
:101640008E9314979689939FD0011124A953BE4F6E
:10165000B387A2878C918F5F8C93A0915801B09132
:10166000590156968C91891708F022CF4093AE010C
:101670001FCFE091BB01F091BC010580F681E02D08
:101680000680F781E02D828193818816990628F4DF
:101690009093BA018093B90154CFC285D3858481D8
:1016A000958126813781DC0115963C932E93149702
:1016B00026813781D90113969C938E931297CF017F
:1016C000029649815A814817590711F43A832983B0
:1016D00013861286288121502883A489B589109702
:1016E000F9F02685378540895189E9015D834C836E
:1016F00040895189EA013B832A8311966D917C913F
:1017000012979F01245F3F4F6217730721F41296CF
:101710005C934E931197158A148A2C9121502C9327
:10172000A6892091EB012A1710F4A093EB01DA9E11
:10173000D0011124A953BE4F11960D90BC91A02D3C
:10174000B583A48314962D913C91159737832683F6
:1017500014962D913C911597E9019B838A831596E8
:101760009C938E93149796899D9DD0011124A95323
:10177000BE4FB387A2878C918F5F8C93E091580105
:10178000F09159018689891710F4BB24B394E09134
:10179000BB01F091BC01808181116BCF1093BA0124
:1017A0000093B901CECE8091AC019091AD0101962C
:1017B0009093AD018093AC01D1E0ED1AF10809F0EE
:1017C0008DCE1092AD011092AC018091AE018823B4
:1017D00009F453CE0E946A0981E050CEAF92BF92C5
:1017E000DF92EF92FF920F931F93CF93DF9300D07E
:1017F00000D01F92CDB7DEB78C011D821C8280E025
:10180000780198E0E90EF11C0FB6F8940F92D80118
:101810005A962C915A975B969C915B97291708F0E2
:10182000B0C05A96DC905A975C964C915C974111E7
:101830008CC08D919C91892B11F080E00AC0F80139
:10184000E480F580E114F10431F580E0F8011582BF
:101850001482D394D8015A96DC925A9751969C914F
:10186000992321F0C80141960E941F0881110E940E
:101870006A090F900FBE81E00F900F900F900F90AC
:101880000F90DF91CF911F910F91FF90EF90DF901C
:10189000BF90AF900895D70192968C919297815006
:1018A00092968C93929756962C91569791969C91DE
:1018B000291759F28111C9CF5701B2E0AB0EB11C03
:1018C000C5010E946206F70181A1868B482F50E076
:1018D00024E030E0241B350B358724879091EB0101
:1018E000981710F48093EB0189E0849FD001859FC5
:1018F000B00D1124A953BE4F11960D90BC91A02D8F
:10190000F701B583A48314962D913C9115973783E5
:1019100026831496ED91FC911597B382A2821596B9
:10192000BC92AE921497D7015696EC915697E89FC9
:10193000F0011124E953FE4F1B96FC93EE931A9786
:1019400080818F5F808381E081CF50E070E060E034
:1019500012968D919C910E948A1AF801848D2281A1
:101960003381820F932F911D93838283248135814C
:101970008217930708F461CF8081918193838283DA
:101980005CCF2C813D81232B21F40F900FBE80E092
:1019900073CF811109C08091C60189838091C401F0
:1019A0009091C5019B838A830F900FBE0E945C06B5
:1019B0000FB6F8940F92F801858D8F3F09F4158EBC
:1019C000D8015E968C915E978F3F11F45E961C92C3
:1019D0000F900FBEBE016C5F7F4FCE0101960E943B
:1019E000EC07811120C00FB6F8940F92F801928D88
:1019F000838D0F900FBE981310C06C817D81C7013D
:101A00000E94C408C8010E94EA080E94260A8111A7
:101A100002C00E946A0981E0F7CEC8010E94EA086C
:101A20000E94260AF8CFC8010E94EA080E94260AEE
:101A3000AECF8F929F92BF92CF92DF92EF92FF92A2
:101A40000F931F93CF93DF938091BF018F5F80939C
:101A5000BF012091C4013091C501E0915801F0917E
:101A60005901A285B3858481958146815781EC0116
:101A70005D834C83C681D7819B838A83CF01029685
:101A800011964D915C9112974817590721F41296BF
:101A9000DC93CE931197138612868C9181508C9390
:101AA0008C91C901C296E0915801F091590193833C
:101AB0008283C0915801D09159018217930708F091
:101AC0005DC0CE0102960091BD011091BE012A8138
:101AD0003B812F3F320709F044C0D8011796ED91A2
:101AE000FC91228133813D832C83D90115969C93EF
:101AF0008E931497FF83EE83938382831B870A87D9
:101B0000E80188818F5F88830FB6F8940F928091E7
:101B1000BF0181508093BF018091BF01882309F4E8
:101B200069C080E00F900FBE811102C00E946A0957
:101B30008FB7F8944091C0015091C1016091C201EA
:101B40007091C30196B595B38FBFDF91CF911F916F
:101B50000F91FF90EF90DF90CF90BF909F908F906C
:101B60000895F801339642815381DA016D917C9199
:101B70002617370708F4B5CFFA01F5CF9E012E5F7F
:101B80003F4FE090BB01F090BC014A815B814F3F29
:101B9000540721F5D7011796ED91FC9142815381AD
:101BA0005D834C83DA0115963C932E931497FF8343
:101BB000EE8333832283FB86EA86E70128812F5F49
:101BC00028832091B9013091BA018217930708F058
:101BD0009BCF9093BA018093B90196CFF7013396CA
:101BE00062817381DB010D911C9140175107B0F2A6
:101BF000FB01F6CF8091B801882309F492CFE090E1
:101C0000B401F090B501F0E0E0E039E041E080910E
:101C1000AF0181116CC0EF2B69F0E091BB01F09135
:101C2000BC0180818111E2C08FEF9FEF9093BA01D8
:101C30008093B9012091AC013091AD01211531059E
:101C400009F499C159E0BB24B3946FEF7FEF809101
:101C5000BF0181117FC18091C4019091C50101969E
:101C60009093C5018093C401009701F5E091BB01F9
:101C7000F091BC01A091BD01B091BE01B093BC0137
:101C8000A093BB01F093BE01E093BD014091C6015A
:101C90004F5F4093C601E091BB01F091BC014081D0
:101CA0004111AEC07093BA016093B901E091B901DE
:101CB000F091BA0140E08E179F0708F03FC1E09114
:101CC0005801F0915901E6895E9FF0011124E95312
:101CD000FE4F8081823008F041E08091AE01811199
:101CE00003C0442309F43FC1B092AE013CC1D70107
:101CF0001696ED91FC91A489B589668577858089D2
:101D00009189EB019D838C8380899189EC017B8390
:101D10006A83BF01645F7F4F11960D911C911297EA
:101D20000617170721F412969C938E931197158A24
:101D3000148A8C9181508C93A285B385848195817E
:101D400066817781EC017D836C8366817781EB010D
:101D50009B838A83CF01029611960D911C91129755
:101D60000817190721F412967C936E931197138626
:101D700012862C9121502C93A6892091EB012A17D1
:101D800010F4A093EB013A9FD0011124A953BE4F48
:101D900011960D90BC91A02DB583A48314966D91DE
:101DA0007C9115977783668314966D917C91159736
:101DB000EB019B838A8315969C938E931497968947
:101DC000939FD0011124A953BE4FB387A2878C9152
:101DD0008F5F8C93A0915801B091590156968C91C8
:101DE000891708F014CF4093AE0111CFE091BB01E9
:101DF000F091BC010580F681E02D8081918116CFA4
:101E0000E091BB01F091BC010580F681E02D0190CD
:101E1000F081E02DF093BA01E093B90147CFE09152
:101E2000BB01F091BC010580F681E02D0680F781B1
:101E3000E02DA281B3818A179B0728F4B093BA01E1
:101E4000A093B9013CCFA285B385E480F5800681DB
:101E50001781E7011D830C8306811781E801FB824E
:101E6000EA824F01D2E08D0E911C1196ED90FC900C
:101E70001297E814F90421F412961C930E9311970B
:101E8000138612861C9111501C93A489B589109752
:101E9000F9F006851785E088F188E801FD82EC827B
:101EA000E088F188E7011B830A831196CD90DC90CE
:101EB00012978F01045F1F4FC016D10621F41296AE
:101EC000FC92EE921197158A148A1C9111501C9362
:101ED000A689B091EB01BA1710F4A093EB015A9FB9
:101EE000D0011124A953BE4F11960D90BC91A02D85
:101EF000B583A48314960D911C91159717830683BF
:101F000014960D911C911597E8019B828A82159673
:101F10009C928E921497C689C59FD0011124A95313
:101F2000BE4FB387A287EC91EF5FEC93E09158012D
:101F3000F0915901E689EC1708F441E0E091BB010A
:101F4000F091BC01E081E1116ACF7093BA01609316
:101F5000B901B5CE8091AC019091AD0101969093FD
:101F6000AD018093AC012150310909F070CE10927F
:101F7000AD011092AC018091AE01882309F4D1CD5E
:101F80000E946A0981E0CECD7F928F929F92AF929C
:101F9000BF92CF92DF92EF92FF920F931F93CF9356
:101FA000DF9300D000D01F92CDB7DEB78C018FEF4A
:101FB0009FEF9D838C83D12C90E0580121E1A20EEC
:101FC000B11C89E0782E24E0822E912C0FB6F89473
:101FD0000F92D8015A968C915A97882309F440C0E1
:101FE00081505A968C935A978D919C91892BA1F48C
:101FF0008091580190915901892B39F0E091580155
:10200000F091590182A18F5F82A380915801909134
:102010005901F80195838483D80118968C918823FF
:1020200039F0C80108960E941F0881110E946A09B0
:102030000F900FBEDD24D3948D2D0F900F900F9035
:102040000F900F90DF91CF911F910F91FF90EF9024
:10205000DF90CF90BF90AF909F908F907F9008952A
:102060002C813D81232B21F40F900FBED12CE4CF86
:10207000911109C08091C60189838091C40190911A
:10208000C5019B838A830F900FBE0E945C060FB62A
:10209000F8940F92F801858D8F3F09F4158ED801C1
:1020A0005E968C915E978F3F11F45E961C920F9016
:1020B0000FBEBE016C5F7F4FCE0101960E94EC0700
:1020C0008111AEC0C8010E94DF08882309F4A2C0B4
:1020D000F80180819181892B09F076C00FB6F894C0
:1020E0000F92E480F580E114F10409F491C0F70146
:1020F0008689E0915801F09159019689891708F075
:102100007BC0D7011C962D913C911D9737FD0CC0CB
:10211000E0915801F091590196899401291B3109E8
:102120001D963C932E931C97879DC00111248953C3
:102130009E4FF701228533852817390709F054C0CF
:102140006701F2E0CF0ED11CC6010E946206E09149
:102150005801F0915901E689D7015696EC93809188
:10216000EB018E1710F4E093EB017E9EF001112439
:10217000E953FE4F0180F281E02DD7011596FC93C3
:10218000EE9314978481958117969C938E9316975E
:10219000A481B5811396DC92CE921297D582C48227
:1021A000D7015696EC915697E79DF0011124E9531B
:1021B000FE4F1B96FC93EE931A9780818F5F80836E
:1021C000DD24D3940F900FBE6C817D81C5010E94E8
:1021D000C408C8010E94EA080E94260A811102C0B0
:1021E0000E946A0991E0F2CEE0915801F091590104
:1021F0008689F701868BE4CFE0915801F09159016F
:10220000DD24D394D70191969C9186899817D0F2BA
:10221000D12CD8CFC8010E94EA080E94260AE2CF3A
:10222000C8010E94EA080E94260AC8010E94DF082D
:102230008823C1F2DD2009F4FFCE0FB6F8940F9287
:10224000F8018189882309F47BC00688F789E02D8D
:10225000908184E0891BD80114960D911C91011581
:10226000110509F401CFF80191A1981708F4982FEE
:10227000D80156968C915697981709F4F5CE9296F8
:102280002C919297213009F0EFCE56969C93569759
:102290001C962D913C911D9737FD08C024E030E03D
:1022A000291B31091D963C932E931C97B9E08B9FF7
:1022B000C001112489539E4FF801228533852817C8
:1022C000390709F0D1CE7801F2E0EF0EF11CC70119
:1022D0000E946206F801A6898091EB018A1710F42A
:1022E000A093EB0189E08A9FD0011124A953BE4F2E
:1022F00011960D90BC91A02DF801B583A48314967E
:102300002D913C911597378326831496ED91FC917E
:102310001597F382E2821596FC92EE921497D801FB
:102320005696EC915697E89FF0011124E953FE4F21
:102330001B96FC93EE931A9780818F5F808394CED7
:1023400080E089CF0F920FB6F8940F921F9211245C
:102350002F923F924F925F926F927F928F929F92B5
:10236000AF92BF92CF92DF92EF92FF920F931F93A3
:102370002F933F934F935F936F937F938F939F938D
:10238000AF93BF93CF93DF93EF93FF93A091580147
:10239000B09159010DB60D920EB60D9213BE8091FB
:1023A000BF018111F9C08091C4019091C5010196CE
:1023B0009093C5018093C401009781F52091BB01E2
:1023C0003091BC014091BD015091BE015093BC01C0
:1023D0004093BB013093BE012093BD012091C60103
:1023E0002F5F2093C601E091BB01F091BC012081D9
:1023F000211107C02FEF3FEF3093BA012093B901AD
:102400000DC0E091BB01F091BC010580F681E02D8B
:10241000208131813093BA012093B9012091B90113
:102420003091BA018217930710F420E0A1C020E098
:1024300039E0D32EE091BB01F091BC013081311124
:1024400007C08FEF9FEF9093BA018093B90190C0BE
:10245000E091BB01F091BC010580F681E02D068082
:10246000F781E02D428153818417950728F450931A
:10247000BA014093B9017CC0A285B38544815581DE
:1024800066817781EA017D836C8366817781EB01C8
:102490005B834A83AF014E5F5F4F11960D911C9194
:1024A00012970417150721F412967C936E931197D7
:1024B000138612863C9131503C93A489B5891097BC
:1024C000F9F06685778500891189EB011D830C83FE
:1024D00000891189E8017B836A831196ED90FC9055
:1024E0001297BF01645F7F4FE616F70621F412963C
:1024F0001C930E931197158A148A3C9131503C938A
:10250000A6893091EB013A1710F4A093EB01DA9E03
:10251000D0011124A953BE4F11960D90BC91A02D4E
:10252000B583A48314966D917C9115977783668308
:1025300014966D917C911597EB015B834A831596F8
:102540005C934E93149746894D9DD0011124A95355
:10255000BE4FB387A2873C913F5F3C93E091580107
:10256000F09159013689341708F064CF21E062CF29
:10257000E0915801F0915901E689D9E0ED9FF00111
:102580001124E953FE4F8081823008F021E08091D0
:10259000AE0181110EC00AC08091AC019091AD01D5
:1025A00001969093AD018093AC0168C0222309F499
:1025B00065C08091BF01882321F081E08093AE0146
:1025C0005DC01092AE01A0915801B0915901E09107
:1025D0005801F09159012D913C918789908D821776
:1025E0009307A8F08091580190915901809158016A
:1025F00090915901259A2D9A2FEF87EA91E6215063
:1026000080409040E1F700C000001D9AF5CF209176
:10261000EB0189E001C02150422F50E0849FF0017E
:10262000859FF00D1124E953FE4F9081992399F372
:10263000A181B28112966D917C9172836183289FF2
:10264000C001112486539E4F6817790721F48581B4
:1026500096819283818389E0849FF001859FF00DAC
:102660001124E953FE4F0180F281E02D868197818C
:1026700090935901809358012093EB01A091580148
:10268000B0915901CD91CDBFDD91DEBFFF91EF91AA
:10269000DF91CF91BF91AF919F918F917F916F917A
:1026A0005F914F913F912F911F910F91FF90EF906C
:1026B000DF90CF90BF90AF909F908F907F906F9062
:1026C0005F904F903F902F901F900F900FBE0F90F4
:1026D0000895CF93DF93009751F0EC010E945C06C0
:1026E000CE010E94A318DF91CF910C94260ADF91AE
:1026F000CF910895CF93DF93CDB7DEB72A970FB66A
:10270000F894DEBF0FBECDBFE0917F01F091800154
:102710001081F12CE12C112329F00580F681E02DA8
:10272000E080F1800E945C060E94D5086C018091D7
:10273000790190917A01C816D90608F08CC00E94E0
:102740004C07D0927A01C09279010E94260A00912A
:102750007B0110917C011A86198680E06801F1E105
:10276000CF0ED11C0FB6F8940F92D8015A96FC9058
:102770005A97FF2009F430C15C964C915C97442332
:1027800001F150E016968D919C911797840F951F3B
:1027900017969C938E93169714962D913C911597AE
:1027A0008217930738F08D919C91119717969C93FF
:1027B0008E931697F80166817781CE0101960E946B
:1027C0008A1AFA94D8015A96FC925A9718968C91C4
:1027D000882339F0C80108960E941F0881110E94C1
:1027E0006A090F900FBED980D7FCB1CF0C811D8133
:1027F000D8011A968D919C91892B21F0C8010296DF
:102800000E9462060E94D5087C0180917901909116
:102810007A01E816F90610F40E944C07F0927A014A
:10282000E0927901EFEFED0DE93008F090CF0E2E38
:10283000000CFF0BEE5DFB4ED80152968C91529727
:102840000C94841AA514A514E814D014E214A51449
:10285000A514E814D014D0927A01C0927901112302
:1028600051F0CE14DF0470F00E94260AB601C701B1
:102870000E9422076CCFE0917D01F0917E01808162
:1028800061E0811160E000917B0110917C010FB645
:10289000F8940F92D8015D968C915D978F3F11F45B
:1028A0005D961C92F801868D8F3F09F4168E0F906D
:1028B0000FBED8015A968C915A9781113CC05296FE
:1028C000ED91FC91A0915801B09159011F96FC9394
:1028D000EE931E97A0915801B09159018481958182
:1028E00051969C938E9350978091580190915901E5
:1028F000A481B5810C9613969C938E931297809128
:102900005801909159010C9695838483E091580168
:10291000F0915901C8014196958B848BF80181890A
:102920008F5F818BC7018C199D09662311F08FEF92
:102930009FEF0E946A07C8010E94EA080E94260AC7
:10294000811105CF0E946A0902CF8160F801828B54
:10295000CA80DB80648575856C0D7D1D9601A7019D
:10296000C8010E94D406882309F4F1CED8015296FA
:102970008C91529782FF10C01C966D917C916C0DCA
:102980007D1DA701C8010E94FE06D8015096ED9159
:10299000FC91C8010995DBCE8E7FF801828BF5CFC3
:1029A000816052968C9352976A817B811D967C93AD
:1029B0006E931C976E0D7F1D9701A701C8010E94A1
:1029C000D406C5CE81FD04C0C8010E946913BFCEE4
:1029D0008E7FF801828BBBCE29853A85232B19F493
:1029E0000F900FBE91CE811109C08091C6018E83D8
:1029F0008091C4019091C50198878F830F900FBE7D
:102A00000E945C060FB6F8940F92F801858D8F3FF7
:102A100009F4158ED8015E968C915E978F3F11F464
:102A20005E961C920F900FBEBE01675F7F4FCE0176
:102A300006960E94EC0781111BC0C8010E94DF08A6
:102A4000882381F069857A85C6010E94C408C8017F
:102A50000E94EA080E94260A811102C00E946A09A7
:102A600081E080CEC8010E94EA080E94260AF8CFC1
:102A7000C8010E94EA080E94260AC8010E94DF08D5
:102A8000882371F341CE00E010E08091780181113C
:102A90000CC08091C701823010F00E946A090115B4
:102AA000110599F30E940001F0CF0FB6F8940F9230
:102AB000E0919401F0919501C681D781CE010296F3
:102AC0000E9462068091B80181508093B801809184
:102AD00078018150809378010F900FBE8F89988D77
:102AE0000E946913CE010E946913CFCFCF93DF9369
:102AF000EC010E945C06CE010E940718EC010E94C6
:102B0000260A209769F4259A2D9A2FEF80E792E004
:102B1000215080409040E1F700C000001D9AF5CFA1
:102B2000CE01DF91CF9108957F928F929F92AF92C5
:102B3000BF92CF92DF92EF92FF920F931F93CF93AA
:102B4000DF93982EA92E762E872E7A01B22ECA01F7
:102B50000E9476156C01892B09F4EAC088E290E0A6
:102B60000E947615EC01892B09F4DFC088E2DE01B2
:102B70001D928A95E9F7D88ECF8AA70165EA70E0A1
:102B8000C6010E94931AB1E0EB1AF108EF89F88DA3
:102B9000EE0DFF1D672D782DCE0149969B01285F14
:102BA0003F4FDB014D91BD01DC014D93CD01AB01E8
:102BB00041505109DA014C91442319F0621773070F
:102BC00081F718A2BE8AB9A21B861A861D8A1C8AA2
:102BD000D987C88784E090E08B1991099D878C87FD
:102BE000DB8BCA8B9082DF011197AC9211971C92FC
:102BF000119780E88C9311971C9257971C9211970C
:102C00001C92B397F983E883F801D183C0830FB690
:102C1000F8940F928091B8018F5F8093B8018091F2
:102C2000580190915901892B09F091C0D093590115
:102C3000C09358018091B801813081F587EC91E013
:102C40000E942C0980ED91E00E942C0989ED91E011
:102C50000E942C0982EE91E00E942C0981EA91E009
:102C60000E942C0988E991E00E942C098FEA91E0EA
:102C70000E942C098FE891E00E942C0986E891E0DF
:102C80000E942C0981EA91E09093BC018093BB01E2
:102C900088E991E09093BE018093BD018091AA01E3
:102CA0008F5F8093AA01AE898091EB018A1710F49F
:102CB000A093EB0129E02A9FD0011124A953BE4F14
:102CC00011960D90BC91A02DBD83AC8314968D916F
:102CD0009C9115979F838E831496ED91FC91159787
:102CE000CE0102969383828315969C938E931497BC
:102CF000EE89E29FF0011124E953FE4FFB87EA873A
:102D000080818F5F80830F900FBE8091AB018823FD
:102D100051F0E0915801F091590196898E899817E8
:102D200010F40E946A0981E004C0C6010E94691380
:102D30008FEFDF91CF911F910F91FF90EF90DF9078
:102D4000CF90BF90AF909F908F907F90089580918B
:102D5000AB018111A3CFE0915801F09159019689FF
:102D60008E89891708F49ACFD0935901C0935801DE
:102D700095CF0F931F93CF93DF9306E711E020E0E9
:102D800040EC50E06FE271E083E495E10E9494151D
:102D9000813009F08CC00FB6F8940F9280917B01BE
:102DA00090917C01892B49F58BE691E00E942C09DA
:102DB00082E691E00E942C098BE691E090938001DD
:102DC00080937F0182E691E090937E0180937D0164
:102DD00081E590E00E947615EC01009751F04F9646
:102DE000998388838AE08B8F85E08C8FCE010E9447
:102DF0003A09D0937C01C0937B010F900FBE809164
:102E00007B0190917C01892B09F451C004E711E00A
:102E100023E045E550E064E371E08AE793E10E9436
:102E20009415813009F043C0F8942FEF3FEF3093B1
:102E3000BA012093B9018093AB011092C5011092A1
:102E4000C401A89588E190EC0FB6F894A8958093FA
:102E500060000FBE90936000A0915801B09159019D
:102E6000CD91CDBFDD91DEBFFF91EF91DF91CF918D
:102E7000BF91AF919F918F917F916F915F914F9192
:102E80003F912F911F910F91FF90EF90DF90CF9086
:102E9000BF90AF909F908F907F906F905F904F907A
:102EA0003F902F901F900F900FBE0F90089580912C
:102EB0000001DF91CF911F910F9108950E94A211FF
:102EC0001895ECEEF1E01382128288EE93E0A0E018
:102ED000B0E084839583A683B7838BE091E09183F0
:102EE000808385EC90E09587848784EC90E09787D9
:102EF000868780EC90E0918B808B81EC90E0938BC7
:102F0000828B82EC90E0958B848B86EC90E0978BA3
:102F1000868B118E128E138E148EE9E8F2E01382E6
:102F200012828DE191E09183808387E084838FEF2B
:102F3000858386E0868385E0878384E0808783E0DD
:102F4000818782E082871386148615861686178607
:102F500081E00C94CF02789484B5826084BD84B5FE
:102F6000816084BD85B5826085BD85B5816085BD84
:102F700080916E00816080936E001092810080913C
:102F800081008260809381008091810081608093C4
:102F90008100809180008160809380008091B100E9
:102FA00084608093B1008091B00081608093B00014
:102FB00080917A00846080937A0080917A008260A8
:102FC00080937A0080917A00816080937A0080916A
:102FD0007A00806880937A001092C10020910501E8
:102FE000309106018FEF98E0821B930B90930201C2
:102FF000809301010E9462040E94B9160E9462043B
:10300000C0E0D0E02097F1F30E940001FBCF0F93C6
:103010001F93CF93DF938230910510F482E090E00C
:10302000E091A302F091A40230E020E0B0E0A0E043
:10303000309799F42115310509F44AC0281B390B42
:1030400024303105D8F58A819B816115710589F19C
:10305000FB0193838283FE0111C040815181028173
:10306000138148175907E0F04817590799F410974A
:1030700061F012960C93129713961C933296CF011F
:10308000DF91CF911F910F9108950093A3021093A8
:10309000A402F4CF2115310551F04217530738F03F
:1030A000A901DB019A01BD01DF01F801C1CFEF01E8
:1030B000F9CF9093A4028093A302CDCFFE01E20F3B
:1030C000F31F819391932250310939832883D7CFFD
:1030D0002091A1023091A202232B41F420910301FF
:1030E000309104013093A2022093A10220910101AA
:1030F000309102012115310541F42DB73EB74091C1
:10310000050150910601241B350BE091A102F091BD
:10311000A202E217F307A0F42E1B3F0B2817390772
:1031200078F0AC014E5F5F4F2417350748F04E0F23
:103130005F1F5093A2024093A102819391939FCF6E
:10314000F0E0E0E09CCFCF93DF930097E9F0FC0143
:10315000329713821282A091A302B091A402ED01D2
:1031600030E020E01097A1F420813181820F931F7D
:103170002091A1023091A2022817390709F061C0FD
:10318000F093A202E093A102DF91CF910895EA01AA
:10319000CE17DF07E8F54A815B819E014115510595
:1031A000B1F7E901FB83EA8349915991C40FD51F17
:1031B000EC17FD0761F4808191810296840F951FC1
:1031C000E90199838883828193819B838A83F0E0DC
:1031D000E0E012968D919C9113970097B9F52D918F
:1031E0003C911197CD010296820F931F2091A1026D
:1031F0003091A2022817390739F6309751F510920D
:10320000A4021092A302B093A202A093A102BCCF89
:10321000D383C28340815181840F951FC817D9077A
:1032200061F44E5F5F4F88819981480F591F518328
:1032300040838A819B81938382832115310509F024
:10324000B0CFF093A402E093A3029ECFFD01DC0176
:10325000C0CF13821282D7CF0E9440190C94281A33
:103260000E94211A58F00E941A1A40F029F45F3F78
:1032700029F00C94111A51110C945C1A0C94171A21
:103280000E94391A68F39923B1F3552391F3951BE2
:10329000550BBB27AA2762177307840738F09F5F77
:1032A0005F4F220F331F441FAA1FA9F335D00E2EE4
:1032B0003AF0E0E832D091505040E695001CCAF751
:1032C0002BD0FE2F29D0660F771F881FBB1F261714
:1032D00037074807AB07B0E809F0BB0B802DBF01EB
:1032E000FF2793585F4F3AF09E3F510578F00C94BA
:1032F000111A0C945C1A5F3FE4F3983ED4F3869560
:1033000077956795B795F7959F5FC9F7880F911DDA
:103310009695879597F90895E1E0660F771F881FC6
:10332000BB1F621773078407BA0720F0621B730B79
:10333000840BBA0BEE1F88F7E09508950E94A5193B
:103340006894B1110C945C1A08950E94411A88F097
:103350009F5798F0B92F9927B751B0F0E1F0660F59
:10336000771F881F991F1AF0BA95C9F714C0B1309A
:1033700091F00E945B1AB1E008950C945B1A672FDC
:10338000782F8827B85F39F0B93FCCF386957795C9
:103390006795B395D9F73EF49095809570956195B2
:1033A0007F4F8F4F9F4F0895E89409C097FB3EF4DD
:1033B00090958095709561957F4F8F4F9F4F992382
:1033C000A9F0F92F96E9BB279395F6958795779500
:1033D0006795B795F111F8CFFAF4BB0F11F460FFC0
:1033E0001BC06F5F7F4F8F4F9F4F16C0882311F018
:1033F00096E911C0772321F09EE8872F762F05C02C
:10340000662371F096E8862F70E060E02AF09A95C6
:10341000660F771F881FDAF7880F9695879597F9BB
:10342000089597F99F6780E870E060E008959FEF46
:1034300080EC089500240A9416161706180609064B
:10344000089500240A94121613061406050608951A
:10345000092E0394000C11F4882352F0BB0F40F4A2
:10346000BF2B11F460FF04C06F5F7F4F8F4F9F4FE2
:10347000089557FD9058440F551F59F05F3F71F064
:103480004795880F97FB991F61F09F3F79F08795CB
:103490000895121613061406551FF2CF4695F1DF54
:1034A00008C0161617061806991FF1CF86957105E4
:1034B000610508940895E894BB2766277727CB0118
:1034C00097F90895A1E21A2EAA1BBB1BFD010DC09E
:1034D000AA1FBB1FEE1FFF1FA217B307E407F507C4
:1034E00020F0A21BB30BE40BF50B661F771F881FA0
:1034F000991F1A9469F760957095809590959B0136
:10350000AC01BD01CF010895EE0FFF1F0590F491AE
:10351000E02D0994FB01DC0102C001900D924150A5
:103520005040D8F70895DC0101C06D9341505040E0
:08353000E0F70895F894FFCFC5
:10353800030000A5028000000000002F018C00B9E4
:10354800007C01EA00C800DC000000000070038C69
:10355800001A021902414443203A20000D0A00498A
:10356800444C4500546D7220537663004144430037
:10357800556C747261736F6E69630044697374612A
:083588006E63653A00636D00FB
:00000001FF
